:100000000C9428080C9450080C9450080C94500838
:100010000C9450080C9450080C9450080C94500800
:100020000C9450080C9450080C94B90E0C94280FA2
:100030000C9450080C9450080C9450080C945008E0
:100040000C9450080C948D120C9450080C94500889
:100050000C9450080C9450080C9450080C945A11AD
:100060000C9450080C9450080C9450080C945008B0
:100070000C9450080C9450080C9450080C945008A0
:100080000C94A4110C9450080C9450080C94500833
:100090000C9450080C9450080C9450080C94500880
:1000A0000C9450080C9450080C9450080000000068
:1000B000240027002A002D00300000000000250049
:1000C00028002B002E00310004080201104080405F
:1000D000102040804080080204018040201002016E
:1000E000108010204040200404040404030405028E
:1000F00002020204030202020206060606060604C3
:1001000004020202040406011501260137014A0116
:100110005D01720188019F01B801D201EE010B025D
:100120002A024B026E029302BA02E40210033F035A
:100130007003A403DC03170455049704DD042705AA
:100140007505C80520067D06E0064907B8072D0895
:10015000A9082D09B9094D0AEA0A900B400CFA0CBE
:10016000C00D910E6F0F5A1053115B1272139A1437
:10017000D41520178018F519801B231DDE1EB4200E
:10018000A622B524E4263429A72B402E0031EA33D9
:100190000037453ABC3D68414C456B49C84D6852F3
:1001A0004F57805C006210111213151617181A1C95
:1001B0001D1F21232527292C2E3134373A3E414556
:1001C000494E52575C62686E757B838B939CA5AFDA
:1001D000B9C4D0DCE9F700000000003E5B4F5B3E95
:1001E0003E6B4F6B3E1C3E7C3E1C183C7E3C181CFC
:1001F000577D571C1C5E7F5E1C00183C1800FFE7F3
:10020000C3E7FF0018241800FFE7DBE7FF30483A98
:10021000060E2629792926407F050507407F0525FA
:100220003F5A3CE73C5A7F3E1C1C08081C1C3E7F82
:1002300014227F22145F5F005F5F06097F017F0049
:100240006689956A606060606094A2FFA294080469
:100250007E040810207E201008082A1C08081C2A8A
:1002600008081E101010100C1E0C1E0C30383E38E2
:1002700030060E3E0E06000000000000005F000089
:100280000007000700147F147F14242A7F2A1223FA
:100290001308646236495620500008070300001C0A
:1002A0002241000041221C002A1C7F1C2A08083E13
:1002B0000808008070300008080808080000606026
:1002C0000020100804023E5149453E00427F400094
:1002D00072494949462141494D331814127F10276C
:1002E000454545393C4A49493141211109073649BB
:1002F000494936464949291E00001400000040348F
:100300000000000814224114141414140041221493
:100310000802015909063E415D594E7C1211127CBA
:100320007F494949363E414141227F4141413E7F1B
:10033000494949417F090909013E414151737F08FB
:1003400008087F00417F41002040413F017F0814A1
:1003500022417F404040407F021C027F7F04081002
:100360007F3E4141413E7F090909063E4151215EE0
:100370007F09192946264949493203017F01033F74
:100380004040403F1F2040201F3F4038403F631403
:1003900008146303047804036159494D43007F4105
:1003A00041410204081020004141417F0402010242
:1003B0000440404040400003070800205454784067
:1003C0007F284444383844444428384444287F38FB
:1003D0005454541800087E090218A4A49C787F087D
:1003E00004047800447D40002040403D007F1028F8
:1003F000440000417F40007C047804787C080404B9
:10040000783844444438FC1824241818242418FC50
:100410007C08040408485454542404043F44243CF5
:100420004040207C1C2040201C3C4030403C442864
:100430001028444C9090907C4464544C44000836FE
:10044000410000007700000041360800020102046C
:10045000023C2623263C1EA1A161123A4040207A8C
:1004600038545455592155557941215454784121D6
:100470005554784020545579400C1E52721239550B
:100480005555593954545459395554545800004508
:100490007C410002457D420001457C40F029242931
:1004A000F0F0282528F07C545545002054547C5405
:1004B0007C0A097F49324949493232484848323238
:1004C0004A4848303A4141217A3A42402078009DDA
:1004D000A0A07D39444444393D4040403D3C24FF88
:1004E0002424487E4943662B2FFC2F2BFF0929F635
:1004F00020C0887E090320545479410000447D4186
:100500003048484A32384040227A007A0A0A727DDE
:100510000D19317D2629292F2826292929263048F9
:100520004D4020380808080808080808382F10C867
:10053000ACBA2F102834FA00007B000008142A14EB
:100540002222142A14089500220095AA005500AA18
:10055000AA55AA55AA000000FF00101010FF0014B1
:100560001414FF001010FF00FF1010F010F014140E
:1005700014FC001414F700FF0000FF00FF1414F433
:1005800004FC141417101F10101F101F1414141F34
:1005900000101010F0000000001F101010101F10AD
:1005A000101010F010000000FF10101010101010AC
:1005B0001010FF10000000FF140000FF00FF0000FB
:1005C0001F10170000FC04F414141710171414F46F
:1005D00004F40000FF00F714141414141414F700AA
:1005E000F7141414171410101F101F141414F414FB
:1005F0001010F010F000001F101F0000001F14006A
:100600000000FC140000F010F01010FF10FF141494
:1006100014FF141010101F00000000F010FFFFFF67
:10062000FFFFF0F0F0F0F0FFFFFF0000000000FF20
:10063000FF0F0F0F0F0F38444438447C2A2A3E1412
:100640007E02020606027E027E026355494163383D
:1006500044443C04407E201E2006027E020299A5EE
:10066000E7A5991C2A492A1C4C7201724C304A4D4C
:100670004D303048784830BC625A463D3E49494981
:10068000007E0101017E2A2A2A2A2A44445F44442A
:1006900040514A444040444A51400000FF0103E0B9
:1006A00080FF000008086B6B083612362436060FF0
:1006B000090F06000018180000001010003040FF5D
:1006C0000101001F01011E00191D1712003C3C3CD6
:1006D0003C0000000000F0F89C8E8783878E9CF819
:1006E000F00000FEFF0303030303070EFCF8000005
:1006F000FEFF0303030303070EFCF80000FFFF00E7
:10070000000000000000FFFF0000FEFF83838383E2
:1007100083C7EE7C380000F8FC0E07030303070EC6
:10072000FCF800003F7FE0C08080C0E07F3FFFFF1B
:1007300001010101010101FFFF0000FFFF0C0C0C92
:100740000C1C3E77E3C100007FFFC0C0C0C0C0E00A
:10075000703F1F00001F3F70E0C0C0C0E0703F1F2F
:1007600000007FFFC1C1C1C1C1E3773E1C00001F73
:100770003F70E0C0C0C0E0703F1F000000000001FB
:10078000FFFF01000000D5F08D14A1C881CFD9F181
:10079000AF200010100000008080404040404080AA
:1007A0008000000000F8868180AEA0A0A0A0AE80EE
:1007B000808186F8000808001038101010102808F2
:1007C000080000217E21000000080814080808081D
:1007D0001C080008080000847E840000001010003F
:1007E00000003E65AD858181818181413E00000030
:1007F000000E8A7E222223E2232222FE0A0E00100D
:10080000100000003E65AD858181818181413E00FF
:100810000000000E8A7E222223E22322223E0A0EBC
:1008200000101000003E41818181818185AD653ECF
:10083000000000000E0AFE222223E22322227E8AEA
:100840000E0000101000003E41818181818185AD44
:10085000653E000000000E0A3E222223E2232222EF
:100860007E8A0E000010100000003E458D8DA5A16F
:10087000A58D8D453E000000000E8A7E222223E2D7
:100880002322227E8A0E0010100000003E458D8D2E
:10089000A5A1A58D8D453E000000000E0AFE222276
:1008A00023E22322227E8A0E0010100000003E4127
:1008B00081818181818181413E000000000E8A7E1C
:1008C000222223E22322227E8A0E00101000003E04
:1008D0004181818181818181413E000000000E8A39
:1008E0007E222223E2232222FE0A0E0000101000A4
:1008F000C0A0C060B0E0F050B0F0F0E0C000000078
:100900003947BBDFBFFEFB7FFBD5F5DFAF7C0008BF
:100910000820C02010C000C020080800C02C12927F
:100920000CC0208014FEFFFFF6F6F6F7F7F7F6F797
:10093000F7FCFCFCFCFEFEFFDFDEDFDEDFDEFEFFA1
:10094000FEFFFFFE7F7F7E7F7F7E7F7F7E7FFEFEBE
:10095000FFFCFCFEFFFEFEFFFFFEFEFEFFFFFFFEB4
:10096000FFFFFCFCFCFCFEFEFFFFFEFFFEFFFEFEA9
:10097000FFFEFFFFFEFFFFFEFFFFFEFFFFFEFFFE8D
:10098000FEFF7F7E7E7E7F7F7FBEBFBFBCFCFCFC08
:10099000FEFEFFFFEEEFEEF7F6F6F7F6FFFFFEFFC7
:1009A000FFFEFFFFFEFFFFFF7F7F7F7F7D7D7D7D61
:1009B000FDFDFDFDFDFFF7F7F7F7F7F7F7F7B7B721
:1009C000BFBFBFBFBFBFBFFFFFFFF7F7F7F7FBFB1F
:1009D000FBFBFBFBFBFFFFFFFFFFDEDEDADADADA11
:1009E000DADBDBFBFBFFFFFFFF9FDFDFDFDFDEDEAE
:1009F000DEDEDEDEDEFEFEFEFEFEFEFEFFFFDFDFF3
:100A0000DFDFDFDFDFDFDFDFDFDFDFDFDFF9FBBBE4
:100A1000BBBBBFBFBFBEBEBEBEBEFEFEFEFEFEFE79
:100A2000FEFEFFFFFF07070F0F070F070F07070E59
:100A3000060F0F070F0F070F0F070F0F070F0707FF
:100A40000F0303070F0F0707070F0F0F070F0F0302
:100A500003030307070F0F070F070F07070F070F02
:100A60000F070F0F070F0F070F0F070F07070F03D2
:100A70000307070F0F0707070F0F0F070F0F0303DA
:100A8000030307070F0F070F070F07070F070F0FC6
:100A9000070F0F070F0F070F0F070F07070F0303AE
:100AA000070F070F0F101000000000F00C2A6A2A31
:100AB0000CF0000000000000000000000101FF0138
:100AC00001000000000000202000000000000000E5
:100AD0000000000000000000000000000000000016
:100AE0000000000000000000000000000000000006
:100AF00000000000000000000000000000000000F6
:100B000000000000000000000000000000000000E5
:100B10000000000000804000000000000000000015
:100B2000000000000000000000000000000008F0CD
:100B300002FC01FE00FF00FE01F804F008E01000D6
:100B40000000000000000000002020000000000065
:100B500000000000000000000080C0C0C080808055
:100B60000000000000000000000000000000000085
:100B70000000007CFEFFFFFFFFFFFFFFFFFFFFFF06
:100B8000FFFEF8F870000000000000000000000008
:100B9000000000000001816111098767170F1F1F06
:100BA0001F0F070000000000000000000000000010
:100BB000000000000000FF0020400FF000000000D7
:100BC0000000000000000000000000804000000065
:100BD0000000000000000000000000000000000015
:100BE000000000FC02F1F9FDFDFDFDFDFDFDFD3DF8
:100BF0003DFDFDFDFDFDFDFDFDFDFDFDFD3D3D3D25
:100C00003D3D3D3D3D3D3D3D3DFDFDFDFDFDFD3D94
:100C10003D3D3D3D3D3D3DFDFDFDFDFDFD3D3D3D84
:100C20003D3D3D3D3D3D3D3D3D3D3D3D3DFDFDFDB4
:100C3000FDFDF9F102FC00000000000000000000D2
:100C400000000000000000000000000000000000A4
:100C50000000000000000000000000000000000094
:100C6000000000FF00FFFFFFFFFFFFFFFF0000008D
:100C700000FFFFFFFFFFFFFFFFFFFF00000000F08E
:100C8000F0FCFCFCFCF0F000000000FFFF000000A6
:100C90000030303C3C3C3CFCFCFFFFFCFCFCFCFC22
:100CA000FCFCFC00000000FCFCFCFCFCFCFCFCFF71
:100CB000FFFFFFFF00FF0000000000000000000039
:100CC0000000000000000000000000000000000024
:100CD0000000000000000000000000000000000014
:100CE000000000FF00FFFFFFFFFFFFFFFF0000000D
:100CF000000F0F3F3F3F3F3F3FFFFF000000000F4F
:100D00000F3F3F3F3F0F0F00000000FFFF3F3F3C02
:100D10003C3C3C0C0C00000000FFFFFFFFFFFFFF0E
:100D2000FFFFFF00000000FFFFFFFFFFFFFFFFFFCF
:100D3000FFFFFFFF00FF00000000000000000000B8
:100D400000000000000000000000000000000000A3
:100D50000000000000000000000000000000000093
:100D6000000000FF003F7FFFFFFFFFFFFFFFFFFCD2
:100D7000FCFCFCFCFCFCFCFFFFFFFFFFFFFCFCFCA1
:100D8000FCFCFCFCFCFCFCFCFCFFFFFFFFFFFFFC91
:100D9000FCFCFCFCFCFCFCFFFFFFFFFFFFFFFFFF78
:100DA000FFFFFFFCFCFFFFFFFFFFFFFFFFFFFFFF59
:100DB000FFFF7F3F00FF0000000000000000000078
:100DC0000000000000000000000000000000000023
:100DD0000000000000000000000000000000000013
:100DE00000000000010202020202020202020202EC
:100DF00002020202020202020202020202E2A2A2B3
:100E00004202E2A2A24202E2A2A2220242A2A22242
:100E10000242A2A222020202C2A2A2C20202020252
:100E200002020202020202020202020202020202A2
:100E300002020202010000000000000000000000A9
:100E400000000000000000000000000000000000A2
:100E50000000000000000000000000000000000092
:100E60000000000000000000000000000000000082
:100E7000000000000000000000000000000300006F
:100E8000000003000102000302020200020202014C
:100E90000002020201000000030000030000000045
:100EA0000000000000000000000000000000000042
:100EB0000000000000000000000000000000000032
:100EC0000000000000000000000000000000000022
:100ED0000000000000000000000000000000000012
:100EE0000000000000000000000000000000000002
:100EF00000000000000000000000000000000000F2
:100F000000000000000000000000000000000000E1
:100F100000000000000000000000000000000000D1
:100F200000000000000000000000000000000000C1
:100F300000000000000000000000000000000000B1
:100F400000000000000000000000000000000000A1
:100F50000000000000000000000000000000000091
:100F60000000000000000000000000000000000081
:100F70000000000000000000000000000000000071
:100F80000000000000000000000000000000000061
:100F90000000000000000000000000000000000051
:100FA0000000000000000000000000000000000041
:100FB0000000000000000000000000000000000031
:100FC0000000000000000000000000000009080C04
:100FD000122142844221120C080B0002020200007E
:100FE000090400000102020000052400100105248C
:100FF00001010104240206052406000107058103FE
:1010000010004009040100020A0000000705020266
:101010004000000705830240000004030904120198
:101020000002EF020140412336800001010203016A
:1010300041726475696E6F204C4C43004172647557
:10104000696E6F204C656F6E6172646F00003113C2
:1010500011241FBECFEFDAE0DEBFCDBF11E0A0E06C
:10106000B1E0ECE3F6E402C005900D92A833B107BD
:10107000D9F725E0A8E3B1E001C01D92AA3FB2076D
:10108000E1F718E0C8E2D8E004C02197FE010E9411
:101090000223C732D107C9F70E9454130C941C23B2
:1010A0000C9400008091510108954F925F927F92BD
:1010B0008F929F92AF92BF92CF92DF92EF92FF9268
:1010C0000F931F93CF93DF939C01FA01C491319644
:1010D000E491AC2FB0E08D01080F191F1016110616
:1010E0000CF0A0C0803891050CF09CC0CB018E0F95
:1010F000911D181619060CF095C0603471050CF09E
:1011000091C0F62FF7709F2ECB0177FD0796F3E085
:1011100095958795FA95E1F7F82F77FF04C0992008
:1011200011F0FFEFF80F66277727621B730B37FD6F
:1011300002C070E060E07C2E003811051CF000E871
:10114000021B702E761AEF2E0F2E000CFF08DE2DDC
:10115000D095FF3F0CF0D0E091E08E2F877009F41E
:1011600090E0E695E695E6959E0FE90EF11C09E004
:10117000E016F10414F098E09F1B1D2F1F0F00E8EC
:101180001003700111242E0D3F1D260F371F4E5FD7
:101190005F4FCD9F600D711D1124460F571FE92C25
:1011A000092C000CFF086FEF70E0092C02C0660FDD
:1011B000771F0A94E2F760957095872E9F0F91171D
:1011C00089F1E901CC55DE4FD12CC12CC71420F593
:1011D000FA01EC0DFD1DE491F0E02F010E2C02C090
:1011E000440C551C0A94E2F717FD04C0888186233D
:1011F00084298883992059F017304CF45E0180E8E7
:10120000A80EB11CF5018081882185298083FFEF1C
:10121000CF1ADF0A2196DACF1F5F4A0F5B1F2058D3
:101220003F4FCDCFDF91CF911F910F91FF90EF9066
:10123000DF90CF90BF90AF909F908F907F905F9006
:101240004F900895E4EAF1E0A0E0B8E000800EBC21
:101250008111012C1197A0FDFDCF0192B9F70DB4BA
:101260000895FC0180919B01882311F13FB7F89408
:1012700082E08093E9002091F200822F90E018161E
:10128000190614F481E090E0882339F0289844E6A8
:1012900040939A014091F1004083222339F020913C
:1012A000F200211103C02BE62093E8003FBF089510
:1012B0008FEF9FEF08952FB7F89483E08093E900B4
:1012C0009091E800892F807295FF04C09091F20000
:1012D00080E4891B2FBF08958091920181110DC078
:1012E00082E080938E0184E080938F0110929101BF
:1012F0001092900181E0809392018EE891E0089530
:10130000CF93DF931F92CDB7DEB76983DC01ED91F8
:10131000FC910280F381E02D41E050E0BE016F5F5F
:101320007F4F09950F90DF91CF91089583E08093CF
:10133000E9008091F200882319F08AE38093E800A5
:1013400008950E945B0990E00895CF93DF931F9268
:10135000CDB7DEB7FC018485958597FD08C02FEFDA
:101360003FEF358724870F90DF91CF910895CE010D
:1013700001960E943109019719F4898190E0F3CF19
:101380008FEF9FEFF0CF0F931F93CF93DF931F92B9
:10139000CDB7DEB78C01FC018485958597FF0BC026
:1013A000CE0101960E943109019771F4898190E084
:1013B000F80195878487F801848595850F90DF91E2
:1013C000CF911F910F9108958FEF9FEFF1CFFC0107
:1013D0008485958597FD0BC09FB7F89482E0809334
:1013E000E9008091F2009FBF90E0019608959FB7B9
:1013F000F89482E08093E9008091F2009FBF90E032
:101400000895409188015091890120918601309181
:10141000870142175307B4F49091E8009570E1F307
:101420009091E80092FD19C08093F10080918801AD
:101430009091890101968F739927892B19F48EEF6A
:101440008093E800809188019091890101969093A2
:1014500089018093880181E0089580E00895DF92FA
:10146000EF92FF920F931F93CF93DF93D82E8A01B1
:10147000EB017B01E40EF51ECE15DF0559F0D7FE1A
:1014800012C0FE0184910E94010A21968111F4CFBD
:101490000FEF1FEFC801DF91CF911F910F91FF90C8
:1014A000EF90DF9008958881EECF0F931F93CF9335
:1014B000DF931F92CDB7DEB782E0898342E450E02C
:1014C00068ED7FE080E80E942F0A0E946C09DC0131
:1014D00012960D911C910115110589F0D801ED911D
:1014E000FC910280F381E02DBE016F5F7F4FC80148
:1014F000099597FD04C0F80100851185ECCF89811D
:101500000F90DF91CF911F910F910895615030F0AE
:101510002091F100FC0120830196F8CF289884E601
:1015200080939A010895AF92BF92CF92DF92EF928B
:10153000FF920F931F93CF93DF936C017B018B017D
:10154000040F151FEB015E01AE18BF08C017D107CD
:1015500059F06991D601ED91FC910190F081E02D57
:10156000C6010995892B79F7C501DF91CF911F91AC
:101570000F91FF90EF90DF90CF90BF90AF900895C4
:101580003FB7F89480914D0190914E01A0914F0189
:10159000B091500126B5A89B05C02F3F19F00196C8
:1015A000A11DB11D3FBFBA2FA92F982F8827BC01BD
:1015B000CD01620F711D811D911D42E0660F771FE5
:1015C000881F991F4A95D1F708958F929F92AF92E5
:1015D000BF92CF92DF92EF92FF926B017C010E944B
:1015E000C00A4B015C01C114D104E104F104B9F05B
:1015F0000E94C00A681979098A099B09683E7340EC
:101600008105910580F321E0C21AD108E108F108B3
:1016100088EE880E83E0981EA11CB11CE4CFFF90D9
:10162000EF90DF90CF90BF90AF909F908F900895F4
:101630008F929F92AF92BF92CF92DF92EF92FF92E2
:101640000F931F93CF93DF936C017B018A018091ED
:101650000C01882309F45CC080919B01882309F464
:1016600057C080918D0180FF05C08091E0008260AD
:101670008093E000E801B12C8AEFA82E93E0892E38
:101680002AE3922E209711F4BB20D9F10E945B0926
:1016900081110AC0AA94AA20D9F161E070E080E02B
:1016A00090E00E94E50AEECF8C171D0611F00CF0B9
:1016B0008C2F9FB7F8948092E9002091E80025FDD7
:1016C00002C09FBFDFCF282F30E0C21BD30BF70132
:1016D000815020F041914093F100FACFE20EF31EC9
:1016E000BB2021F09092E800B12CEBCF8091E80074
:1016F00085FDE7CF9092E800BB24B394209709F3CF
:10170000F3CF5D9884E680938C01101611063CF0AF
:1017100081E090E0F6019383828310E000E0C8014D
:10172000DF91CF911F910F91FF90EF90DF90CF90BD
:10173000BF90AF909F908F9008952D9A0895BC010F
:1017400090E080E00C94E50A8FB18095807F669BE5
:1017500088601C9B846008953E9A3F9A81E0809344
:1017600051010895AF92BF92CF92DF92EF92FF9214
:101770000F931F93CF93DF936D3079F0C0915E018B
:10178000D0915F016A30B1F410925D0110925C015A
:101790002896D0935F01C0935E0181E090E0DF91D5
:1017A000CF911F910F91FF90EF90DF90CF90BF905E
:1017B000AF90089540915C0150915D0185E0689F74
:1017C000F0011124EA52FE4F9A01C12C80E1E82E6B
:1017D000A5E070E0CA1621F0CF0101967491FC01DA
:1017E00010E000E0B72FB170DB2E20383105D0F4C7
:1017F000CE01800F911F80349105A0F461E081FD3E
:1018000064E080FD660F82FD6295887FE89ED001CE
:101810001124A20FF62EAC55BE4F8C91DD20A9F0FD
:10182000862B8C9376950F5F1F4F08301105D1F6EC
:10183000C3942F5F3F4F86E0C812CACF4A5F5F4F05
:1018400050935D0140935C01A8CFF0948F21E9CFC4
:10185000CF93C82F0E94A40B982F9C2381E09C1348
:1018600080E0CF91089580E00C942209CF92DF921E
:10187000EF92FF921F93CF93DF93E82FF0E0EF5E9C
:10188000FE4F1081E62FF0E0603398F5EA55FE4FE9
:10189000E491CE2FD0E0F12CE12C60E074E284EFF3
:1018A00090E0A7019E010E94BF202150310941090B
:1018B000510991E02115310581E0480751056CF08F
:1018C00060E970ED83E090E0A7019E010E94BF20D7
:1018D000215031094109510993E0113089F0133049
:1018E00039F1DF91CF911F91FF90EF90DF90CF9072
:1018F0000895EE0FFF1FEA55FF4FC591D491CBCF4E
:101900008091A2018111EDCF80918100887F892B88
:101910008093810030938900209388001092850085
:101920001092840080916F00826080936F00D9CF05
:1019300080919100887F892B80939100309399004A
:10194000209398001092950010929400D0934B0130
:10195000C0934A0181E080934901809171008260C7
:1019600080937100BECFE82FF0E0EF5EFE4F8081E4
:10197000813019F08330A9F008958091A20181117E
:101980000FC080916F008D7F80936F0080913C012C
:10199000E0913A01F0913B01908180958923808309
:1019A0000895109249018091A0018111F9CF809191
:1019B0004701E0914501F0914601EECF9091A301DE
:1019C000923009F471C0292F30E0F901EF5EFE4F2B
:1019D0004081285C3E4FF9018083913031F42091A1
:1019E0003801281302C090933D019F5F9093A3019B
:1019F00090E0FC01E951FF4F249188539F4FFC0177
:101A0000849130E0220F331FF901E654FF4F6591B6
:101A10007491F901E455FF4FA591B4919C91982BD5
:101A20009C93413019F04330D9F0089590916400AF
:101A3000977F9093640010928000109281009091A3
:101A400081009860909381009091810091609093C3
:101A5000810070933B0160933A0180933C010895AB
:101A600090916500977F909365001092900010927E
:101A700091009091910098609093910090919100C5
:101A8000916090939100709346016093450180931B
:101A900047018091A301882321F06CE380E00E943C
:101AA000360C80E00C94B30C08958F929F92AF9205
:101AB000BF92CF92DF92EF92FF92CF93DF93EB0131
:101AC00085E00E94DE0C8DE00E94DE0CE091F405C2
:101AD000F091F5050995882309F45BC08091A30175
:101AE000823008F456C081E08093A2018091A10168
:101AF0008093A0014E010D2E000CAA08BB0860E0E7
:101B000072E18AE790E0A50194010E94BF2069017B
:101B10007A0181E0C81AD108E108F10891E0C11406
:101B2000D10481E0E806F10484F068E478EE81E015
:101B300090E0A50194010E94BF2069017A0181E033
:101B4000C81AD108E108F10893E080918100887FEC
:101B5000892B809381009E01220F331FA4E6B0E001
:101B60000E94132128EE33E040E050E00E94F12073
:101B7000D0928900C092880020939C0130939D01EF
:101B800040939E0150939F0180916F0082608093EB
:101B90006F0090E080E0DF91CF91FF90EF90DF90B9
:101BA000CF90BF90AF909F908F9008952091620149
:101BB000309163012C33310584F02AE030E030931A
:101BC00063012093620121E030E030938301209390
:101BD00082019093770180937601089520916201AC
:101BE00030916301273F3F4F84F422E330E030938C
:101BF00063012093620121E030E030938301209360
:101C0000820190937701809376010895209160017D
:101C100030916101223F3F4F84F42EE630E0309353
:101C200061012093600121E030E030938301209333
:101C3000820190937701809376010895209160014D
:101C4000309161012D37310584F02AE030E0309386
:101C500061012093600121E030E030938301209303
:101C6000820190937701809376010895E09160015D
:101C7000F0916101E817F907CCF06E177F07B4F017
:101C80008091620190916301281739077CF08417D5
:101C9000950764F020916801309169012130310588
:101CA00031F4029690936301809362010895243089
:101CB000310531F43296F0936101E09360010895AB
:101CC0002230310511F43297F6CF2330310571F708
:101CD0000297E8CFE0E6F1E084E190E09183808331
:101CE00082E390E0938382831582148217821682A6
:101CF00081E090E09187808712861386148615868E
:101D000010925B0110925A01A8E7B1E011961C9263
:101D10001E9213961C921E92129717961C921E9258
:101D2000169715961C921E92149740E050E06AEFA9
:101D300072E446875787608B718B138A128A1092E0
:101D4000770110927601158A148A19961C921E92B8
:101D50001897109283011092820108950E945508ED
:101D600090E080E00895089590E080E008950C945C
:101D7000A9201F920F920FB60F9211248F939F9359
:101D80008091E1009091E100937F9093E10083FFC7
:101D90000FC01092E90091E09093EB001092EC00DC
:101DA00092E39093ED0010929B0198E09093F000E5
:101DB00082FF22C093E09093E9009091F200992372
:101DC00019F09AE39093E80090918C01992341F0E7
:101DD00090918C01915090938C01911101C05D9A6A
:101DE00090919A01992341F090919A01915090938A
:101DF0009A01911101C0289A84FF18C08091E200D5
:101E00008E7E81608093E2008091E1008F7E8093DE
:101E1000E10080918D018E7E806180938D019F9184
:101E20008F910F900FBE0F901F90189580FFF7CFE6
:101E30008091E2008E7E80618093E2008091E100DB
:101E40008E7E8093E10080918D018E7E8160E5CF52
:101E50001F920F920FB60F921124CF92DF92EF9242
:101E6000FF920F931F932F933F934F935F936F9323
:101E70007F938F939F93AF93BF93EF93FF93CF93F2
:101E8000DF93CDB7DEB76C97DEBFCDBF1092E90010
:101E90008091E80083FF25C068E0CE0145960E944E
:101EA000860A82EF8093E8008D8987FF39C0909180
:101EB000E80090FFFCCF982F907609F034C19E89FE
:101EC0004F89588D2F89F88C911131C0803861F578
:101ED00080918B018093F1001092F1008EEF80933E
:101EE000E8006C960FB6F894DEBF0FBECDBFDF9151
:101EF000CF91FF91EF91BF91AF919F918F917F9182
:101F00006F915F914F913F912F911F910F91FF9092
:101F1000EF90DF90CF900F900FBE0F901F9018950D
:101F20009EEF9093E800C7CF1092F100D5CF91308B
:101F300059F48111D3CF4130510581F680918B0145
:101F40008D7F80938B01CACF933049F48111C6CF26
:101F50004130510519F680918B018260F2CF9530A6
:101F600041F48091E80080FFFCCF20682093E300DB
:101F7000B5CF963009F0A9C00B8D1C8D22E01092D0
:101F8000E9001092890110928801F2122EC010927D
:101F90008701109286010E94550A1F8299E0998359
:101FA000FA8291E09E8390EA98879AEF9987209130
:101FB000880130918901275F3F4F3C832B838D83BC
:101FC0001092E90010928901109288011093870104
:101FD0000093860149E050E0BE016F5F7F4F80E0D3
:101FE0000E942F0A0E94550A79CF1093870100930F
:101FF00086010E946C09DC0112960D911C9101155D
:10200000110509F451C1D801ED91FC910480F581CD
:10201000E02DBE016B5E7F4FC8010995009709F066
:102020003EC1F80100851185EACFF3E0FF120EC032
:102030008F89882309F440C0823061F440E860E170
:102040008CE390E10E94FE12811148CF81E28093DF
:10205000EB0047CF813029F440E86BE080E390E16A
:10206000F1CF833099F70E946C09DC011296ED9054
:10207000FC908E010F5F1F4F6801E114F10479F0AD
:10208000D701ED91FC910680F781E02DB801C701E1
:102090000995080F111DF701E084F184EECFD801F6
:1020A0001C92F60101900020E9F73197BF016C19ED
:1020B0007D0940E0C601C6CF6AE170E1FB014491B1
:1020C00050E080E80E942F0A09CF973009F4BECF74
:1020D000983021F481E08093F10000CF993009F02D
:1020E000FDCE837009F0B2CFE4E1F1E081E031E0B0
:1020F00096E32191222371F08093E9003093EB0065
:10210000DF0111972C912093EC009093ED008F5FED
:10211000873079F78EE78093EA001092EA008F8982
:1021200080939B01DBCE8B8D9C8D1092E9001092E9
:102130008901109288019093870180938601898D8F
:10214000811192C08E899D89913A49F4813209F0BA
:102150007DCF47E050E065E071E080E0B3CF9132A1
:1021600009F074CF833269F48F89988DB0E0A0E0D4
:102170008093010190930201A0930301B0930401A5
:10218000ADCE803269F48091E80082FFFCCF67E039
:1021900085E091E00E94860A8BEF8093E8009ECE56
:1021A000823209F09BCE8F8980930C01EEEFFFE71E
:1021B000859194918B3F9C4D51F1E0E0F8E0809146
:1021C000050190910601A0910701B0910801803BA3
:1021D0009440A105B105F1F480910C0180FD1AC075
:1021E000EE3F8AE0F80789F587E797E791838083D8
:1021F0008091600080938A0188E19BE00FB6F8949B
:10220000A895809360000FBE9093600067CEEEEFBC
:10221000FAE0D5CF808191818737974709F05ECE6C
:10222000A8958091600088618093600080918A0108
:1022300080936000EE3F2AE0F20789F08091FE0A69
:102240009091FF0A9183808349CE80819181873765
:10225000980751F29093FF0A8093FE0AC5CF10921F
:10226000FF0A1092FE0A3ACE0E946C09DC01129617
:102270000D911C910115110509F4E8CED801ED91DD
:10228000FC910190F081E02DBE016B5E7F4FC80193
:102290000995811123CEF80100851185EBCF181621
:1022A00019060CF41BCED2CEF1E0FF12BECE6EE1C9
:1022B00070E104CF1F920F920FB60F9211242F934B
:1022C0003F938F939F93AF93BF93809152019091CF
:1022D0005301A0915401B091550130914C0123E07C
:1022E000230F2D3758F50196A11DB11D20934C01E8
:1022F0008093520190935301A0935401B0935501E0
:1023000080914D0190914E01A0914F01B0915001EB
:102310000196A11DB11D80934D0190934E01A09394
:102320004F01B0935001BF91AF919F918F913F9119
:102330002F910F900FBE0F901F90189526E8230F36
:102340000296A11DB11DD2CF1F920F920FB60F9210
:1023500011242F933F934F935F936F937F938F93AA
:102360009F93AF93BF93CF93DF93EF93FF938091AE
:102370004901882389F08091A00181110DC08091CD
:102380004801811109C090914701E0914501F09108
:10239000460180818927808380914401882309F444
:1023A0009CC08091400190914101A0914201B09167
:1023B0004301892B8A2B8B2B09F48FC0809140011C
:1023C00090914101A0914201B09143010197A1096F
:1023D000B1098093400190934101A0934201B093D1
:1023E0004301892B8A2B8B2B09F077C0D1E0E09138
:1023F0003E01F0913F01AF014F5F5F4F50933F01AE
:1024000040933E012491822F807FC22FCF7080386D
:1024100021F48C2F0E94B30CEACF803919F5E0919A
:10242000F405F091F50509958D2780934801E09119
:102430003E01F0913F01CF01019690933F018093BF
:102440003E0164918091A301C81788F6C13021F440
:1024500080913D018111CBCF67FDC9CF8C2F0E94A8
:10246000360CC5CF87FD4CC03296F0933F01E09308
:102470003E01FA014491A0914A01B0914B01322FE3
:10248000242F0E9413216C507E4F8F4F9F4F28EEB8
:1024900033E040E050E00E94F1202093400130936F
:1024A000410140934201509343018091400190913A
:1024B0004101A0914201B0914301892B8A2B8B2BC2
:1024C00061F481E090E0A0E0B0E08093400190935F
:1024D0004101A0934201B0934301FF91EF91DF913D
:1024E000CF91BF91AF919F918F917F916F915F91AC
:1024F0004F913F912F910F900FBE0F901F90189505
:10250000803E29F410923F0110923E0170CF803F2F
:1025100009F06DCF10924401E0CF1F920F920FB6D9
:102520000F9211248F939F93AF93BF93EF93FF93D9
:102530008091A201882309F454C080919C0190915C
:102540009D01A0919E01B0919F01892B8A2B8B2B1D
:10255000A1F190913C01E0913A01F0913B01808121
:102560008927808380919C0190919D01A0919E017B
:10257000B0919F01181619061A061B069CF480914B
:102580009C0190919D01A0919E01B0919F010197A6
:10259000A109B10980939C0190939D01A0939E0194
:1025A000B0939F01FF91EF91BF91AF919F918F9158
:1025B0000F900FBE0F901F9018951092A0011092CF
:1025C000A20180916F008D7F80936F0080913C010C
:1025D000E0913A01F0913B019081809589238083BD
:1025E000E1CF809148018111DDCF90913C01E091D4
:1025F0003A01F0913B0180818927F1CFEF92FF9260
:102600000F931F93CF93DF93F82E192FE62E042FED
:1026100081E0860F880F0E94010A83E00E94010A70
:10262000CF2DD12FEC0EFD2EF11CCE15DF05B9F00C
:1026300007FF13C0FE0184910E94010A182F80E059
:102640000E94010A812321968111EFCFDF91CF9162
:102650001F910F91FF90EF9008958881EDCF81E059
:10266000F5CFE4EAF5E01382128288EE93E0A0E071
:10267000B0E084839583A683B7838EE191E0918354
:1026800080838FEF9FEF95878487E6EFF5E01382D5
:10269000128280E391E09183808382E598E09093B9
:1026A000F5058093F4050895789484B5826084BD1F
:1026B00084B5816084BD85B5826085BD85B5816046
:1026C00085BD80916E00816080936E0010928100C4
:1026D000809181008260809381008091810081607F
:1026E0008093810080918000816080938000809140
:1026F000910082608093910080919100816080932D
:102700009100809190008160809390008091C10041
:1027100084608093C1008091C10082608093C10079
:102720008091C10081608093C1008091C30081606D
:102730008093C3008091C00082608093C00080912C
:10274000C20081608093C20080917A00846080938F
:102750007A0080917A00826080937A0080917A007A
:10276000816080937A0080917A00806880937A00FB
:1027700010929B0110928B0110928D018091D700D5
:1027800081608093D70080EA8093D80089B580610A
:1027900089BD89B5826089BD09B400FEFDCF61E0C5
:1027A00070E080E090E00E94E50A8091D8008F7C84
:1027B00080618093D8008091E000807F8093E0006A
:1027C0008091E1008E7E8093E1008DE08093E200B5
:1027D000559A209A81EC80937C0085B1806F85B9F1
:1027E00084B1877E84B984B1876E84B95E9A5F981C
:1027F0008AB1806D8AB9769A6E9881B3806F81BBF9
:10280000899880B38D7080BB80E58CBD81E08DBDE3
:1028100085E090E00E949F0B5F9A85E090E00E9427
:102820009F0B5E985C98E6E8F7E084918EBD00000F
:102830000DB407FEFDCF319627E0E339F207A9F783
:102840005C9A81E880936400809165008160809348
:1028500065000E94330C80E80E94280C8823A9F0B0
:102860005C9885EA8EBD00000DB407FEFDCF5C9A32
:102870002E982F982D988091640080628093640038
:1028800081E083BF889513BEFCCF84E00E94280CB2
:10289000882309F448C02D9884E80E94280C8823D6
:1028A000E1F00E949D0B88EC90E00E949F0B2F9816
:1028B00082E090E00E94A9208F3F29F06FEF82E034
:1028C00090E00E94B12084EF91E00E949F0B2F9A2C
:1028D00084E80E94280C8111FBCF84E10E94280C1F
:1028E0008823E1F00E949D0B88EC90E00E949F0BF2
:1028F0002E9882E090E00E94A920882329F060E0D1
:1029000082E090E00E94B12084EF91E00E949F0B52
:102910002E9A84E10E94280C8111FBCF88EC90E074
:102920000E949F0BB2CF0E949D0B82E090E00E941C
:10293000B70E882309F454C00E94AC0B81E090E0EC
:102940000E94B70E81FF13C0482F4470542E82FDA1
:102950002E98C1EFDFEF08E010E080E40E94280C21
:10296000882309F442C02E9A2F9A0E949D0B82E37D
:1029700090E00E949F0B0E94A40B8111F8CF86E18A
:10298000809300010E94AC0B0E946A0E80E0482EEA
:1029900080E0582E9AE0292E312CC1E0D0E024E0CE
:1029A000622E712C32E0A32EB12C43E0842E912CA8
:1029B0008FB7F894409152015091530160915401A6
:1029C000709155018FBF80915801882309F4CBC0C5
:1029D000109258014114510459F30E940000E8CFAD
:1029E000109251013E983F98A9CF552029F0C4304C
:1029F000D10511F42E9A2F9881E00E9422099E01A0
:102A0000D7FF04C0222733272C1B3D0B2770332709
:102A1000CE01D7FD079663E0959587956A95E1F716
:102A2000D7FF05C00197F801E21BF30B9F01BC0122
:102A30007695762F6627779567956C557E4FF12CA6
:102A4000E12C3801621A730A8E3FFFEF9F0709F4E9
:102A50003AC0DB0150E040E0F701EA52F94F5F0174
:102A60004B01F0E88F0E911C8F3F980781F0F50124
:102A7000E40FF51FE491022E01C0EE0F0A94EAF76D
:102A80005496FC915497EF2B5496EC935497211540
:102A9000310599F0F501E40FF51FE4916401C40ECE
:102AA000D51EF0E01F01062C02C0359427940A942D
:102AB000E2F7F60134882328248A4F5F5F4F11968E
:102AC0004835510589F60196F8E5EF0EF11C60587E
:102AD0007F4F40EBE416F10409F0B6CF0E94330CAF
:102AE0008FE090E00E949F0B2196C931D10509F03B
:102AF00034CF552011F02F9A2D9880E991E00E9453
:102B00009F0B0E949D0B81E090E00E94B70E80FF1A
:102B10002ECF8AE090E00E94B70E9FEF980F9E3F65
:102B200008F025CF22E330E030935D0120935C0173
:102B300028E330E030935F0120935E01CBE0D0E0EA
:102B4000682F86EF95E00E94B20BCE010E94B70E6F
:102B50002196C131D105A1F70E94330C88EE93E094
:102B60000E949F0B04CF90915901E42FE91B9E2FE7
:102B700020910001E21748F49F5F921708F02ACFD6
:102B8000F1E0F3BF889513BE25CF21E020935801D3
:102B90004093590120915601309157012F5F3F4FCB
:102BA0003093570120935601E4EAF1E081118FEF51
:102BB000002481938193819381930394D1F71092A0
:102BC0005F0110925E0110925D0110925C010E9403
:102BD00099206AE070E00E94EE220A9690938501A7
:102BE00080938401E0917601F0917701E532F1055F
:102BF00008F04BC0E250FA4E0C94022323167F19C2
:102C0000B619F319101A2F1A601A8F1AC41AF51A66
:102C1000341B5B1B821BAF1BD21BFF1B301C5D1CBC
:102C20007E1C951CBE1CDD1C041D251D4E1D751D26
:102C3000A61DE71D101E2F1E501E711E961EBF1EC4
:102C4000DE1E071F261F4BEC5BE070E060E090E0AB
:102C500080E00E94AE0E88E00E94280C882321F0BC
:102C6000D0937701C093760120E030E0A901609114
:102C70006E0170916F0180917001909171010E94BD
:102C80008F21181614F00E946A0E84E00E94280C0E
:102C9000882359F18091720190917301892B29F554
:102CA0008091760190917701892BF9F06CE271E0C7
:102CB00010E0812F0E94550D68EC70E0812F0E947A
:102CC000550D80916801909169018230910511F450
:102CD0000C946B1F14F00C944B1F019711F40C947F
:102CE000581FD0937301C093720180E80E94280C92
:102CF00000917201109173018823D9F1011511051A
:102D0000C1F58091760190917701892B91F180E452
:102D10000E94280C81112DC080E20E94280C811194
:102D200028C080E10E94280C811123C0D093690142
:102D3000C0936801609162017091630162507109F2
:102D400070936301609362018091600190916101D1
:102D500020915A0130915B014BEC58E02233310550
:102D600014F449EA58E00E94AE0ED0937501C09366
:102D7000740180E10E94280C8823D9F10115110506
:102D8000C1F58091760190917701892B91F180E4D2
:102D90000E94280C81112DC080E80E94280C81110E
:102DA00028C080E20E94280C811123C09092690102
:102DB0008092680160916201709163016E5F7F4F44
:102DC0007093630160936201809160019091610151
:102DD00020915A0130915B0147E858E022333105D8
:102DE00014F445E658E00E94AE0ED0937501C093EE
:102DF000740180E40E94280C8823D1F1011511058B
:102E0000B9F58091760190917701892B89F180E263
:102E10000E94280C81112CC080E80E94280C81118E
:102E200027C080E10E94280C811122C0B092690164
:102E3000A092680180916001909161010296909347
:102E40006101809360016091620170916301209142
:102E50005A0130915B0143E458E02233310514F408
:102E600041E258E00E94AE0ED0937501C093740108
:102E700080E20E94280C8823D1F101151105B9F5D3
:102E80008091760190917701892B89F180E40E94ED
:102E9000280C81112CC080E80E94280C811127C0C9
:102EA00080E10E94280C811122C070926901609219
:102EB0006801809160019091610102979093610196
:102EC00080936001609162017091630120915A01C9
:102ED00030915B014FEF57E02233310514F44DED93
:102EE00057E00E94AE0ED0937501C093740180E24A
:102EF0000E94280C811119C080E40E94280C8111C5
:102F000014C080E80E94280C81110FC080E10E944B
:102F1000280C81110AC08091760190917701892B4C
:102F200021F01092750110927401809174019091BA
:102F30007501892BA9F48091760190917701892BF5
:102F400079F080916801909169018230910511F4C6
:102F50000C94E41F0CF0DBC7019711F40C94B51F1F
:102F60000130110581F480916801909169018230EE
:102F7000910511F40C94F51F14F00C94372001976F
:102F800011F40C94C61F88E00E94280C8823F1F1EC
:102F900080916001909161012091780130917901D7
:102FA000821B930BC39790F580916201909163010E
:102FB00020917A0130917B01821B930BC296C397BB
:102FC00028F5109281011092800162E370E080E0A8
:102FD0000E94550D80918001909181010197B1F47B
:102FE00020E030E040E85FE360916A0170916B019E
:102FF00080916C0190916D010E94232160936A0180
:1030000070936B0180936C0190936D0180916401CA
:10301000909165012091780130917901821B930B89
:10302000C39760F5809166019091670120917A01C4
:1030300030917B01821B930BC296C397F8F41092D8
:1030400081011092800164E670E080E00E94550DDD
:1030500020E030E040E85FE360916A0170916B012D
:1030600080916C0190916D010E94232160936A010F
:1030700070936B0180936C0190936D01C0908001FF
:10308000D090810181E0C816D10409F0D0C0E09051
:103090007A01F0907B01009178011091790143E968
:1030A00057E0B701C8010E94AE0E80917E01909159
:1030B0007F01892B21F4D0927F01C0927E01809103
:1030C0006201909163018E159F053CF0EFEFEE1ABF
:1030D000FE0AF0927B01E0927A0120917A01309110
:1030E0007B012817390734F02150310930937B01D7
:1030F00020937A01209160013091610120173107FE
:1031000034F00F5F1F4F10937901009378014091C5
:103110007801509179014217530734F04150510919
:103120005093790140937801409178015091790151
:10313000241B350B23333105F8F420917A013091AB
:103140007B01821B930BC296C397B0F420E030E062
:1031500040E85FE360916E0170916F0180917001B2
:10316000909171010E94222160936E0170936F0112
:10317000809370019093710120E030E0A90160918B
:103180006E0170916F0180917001909171010E94A8
:103190008F21811104C010927701109276018091E5
:1031A0007E0190917F01019709F041C000917C015F
:1031B00010917D01063FFFEF1F070CF460C760917F
:1031C0007A0170917B01072E000C880B990B0E94ED
:1031D000CC216B017C01C80117FF04C08827992707
:1031E000801B910B809FB001819F700D909F700D8F
:1031F0001124072E000C880B990B0E94CC212DEC7A
:103200003CEC4CEC5DE30E9481229B01AC01C701C8
:10321000B6010E9422210E94942170937B01609349
:103220007A010150110910937D0100937C01809176
:10323000820190918301892B71F08091840190919A
:1032400085010F9721F4D0938101C09380011092E2
:1032500083011092820180915A0190915B010A963C
:10326000843691050CF014C790935B0180935A014A
:103270008091760190917701892BF1F1C0906E01D8
:10328000D0906F01E0907001F090710120E030E08B
:1032900044E052E4C701B6010E947C2287FD08C0C9
:1032A0004DEC5FE065E070E08CE590E00E94550831
:1032B00020E030E044E852E4C701B6010E947C22DD
:1032C00087FD08C04DEC5FE065E070E085E690E0CA
:1032D0000E94550820E030E046EC52E4C701B601F8
:1032E0000E947C2287FD08C04DEC5FE065E070E045
:1032F0008EE690E00E9455080E94330C6BCB49E4A7
:103300005BE069E170E082E390E00E94AE0E47EC82
:103310005AE069E170E08BE490E00E94AE0E47EC69
:103320005AE06FE070E089E190E00E94AE0E22E387
:1033300030E044E150E06BE470E082E390E00E9412
:10334000360E82E090E00E94060E8DE090E00E9432
:103350001E0E81E190E00E94EE0D26E430E04CE389
:1033600050E060E870E090E080E03AC047EC5AE05E
:103370006FE070E089E190E00E94AE0E47EC5AE009
:1033800065E070E089E190E00E94AE0E26E430E056
:103390004CE350E060E870E090E080E00E94360E80
:1033A00081E090E00E941E0E45EA5AE06FE070E076
:1033B0008FE090E00E94AE0E45EA5AE06FE070E0C8
:1033C00089E690E00E94AE0E83E090E00E94EE0D50
:1033D00020E830E050E040E070E060E081EF9FEFF7
:1033E0000E94360E52CC47EC5AE064E170E08BE468
:1033F00090E00E94AE0E47EC5AE064E170E089E193
:1034000090E00E94AE0E82E090E00E94D60D84E033
:1034100090E00E94EE0D81E190E00E941E0ED8CF58
:1034200047EC5AE064E170E085E090E00E94AE0E67
:1034300020E830E050E040E070E060E081EF9FEF96
:103440000E94360E83E090E00E94D60D85E090E069
:103450000E94EE0D86E190E00E941E0E16CC49E41B
:103460005BE069E170E084E690E00E94AE0E27E345
:1034700030E049E150E064E170E084E690E00E94D1
:10348000360E22E330E044E150E062E870E084E68A
:1034900090E00E94360E20E830E050E040E070E01E
:1034A00060E081EF9FEF0E94360E84E090E00E9482
:1034B000D60D86E090E00E94EE0D8BE190E0CCCF3F
:1034C00047EC5AE064E170E082E390E00E94AE0EC7
:1034D00049E45BE069E170E084E190E00E94AE0EB7
:1034E00027E330E049E150E068E270E084E190E0F9
:1034F0000E94360E20E830E050E040E070E060E0EE
:1035000081EF9FEF0E94360E85E090E00E94D60D7D
:1035100087E090E00E94EE0D80E290E09DCF43E2D4
:1035200059E06AE070E090E080E00E94AE0E47EC67
:103530005AE06EE170E08EE190E00E94AE0E24E170
:1035400030E050E040E060E870E090E080E00E9411
:10355000360E30E020E046EF5FEF60E870E090E08C
:1035600080E00E94360E20E830E050E040E070E05D
:1035700060E081EF9FEF0E94360E86E090E00E94AF
:10358000D60D88E090E068CF43E259E06AE070E051
:1035900090E080E00E94AE0E49E45BE068E270E0FB
:1035A0008CE390E00E94AE0E24E130E050E040E079
:1035B00060E870E090E080E00E94360E30E020E0AD
:1035C00046EF5FEF60E870E090E080E00E94360E2A
:1035D00087E090E00E94060E89E090E00E941E0EB7
:1035E00080E290E00E94D60D50CB43E259E06AE0C1
:1035F00070E090E080E00E94AE0E49E159E060E2A8
:1036000070E080E290E00E94AE0E4FE059E060E290
:1036100070E088E290E00E94AE0E49E159E060E27D
:1036200070E080E390E00E94AE0E24E130E050E0D4
:1036300040E060E870E090E080E00E94360E30E00C
:1036400020E046EF5FEF60E870E090E080E00E94ED
:10365000360E88E090E00E94060E8AE090E00E941C
:103660001E0E81E290E0BECF43E259E06AE070E0D6
:1036700090E080E00E94AE0E24E130E050E040E0B7
:1036800060E870E090E080E00E94360E30E020E0DC
:1036900046EF5FEF60E870E090E080E00E94360E59
:1036A00089E090E00E94060E8BE090E00E941E0EE2
:1036B00082E290E097CF43E259E06AE070E090E068
:1036C00080E00E94AE0E24E130E050E040E060E88F
:1036D00070E090E080E00E94360E30E020E046EF9F
:1036E0005FEF60E870E090E080E00E94360E8AE0D4
:1036F00090E00E94060E8CE090E00E941E0E83E295
:1037000090E070CF43E259E06AE070E090E080E042
:103710000E94AE0E24E130E050E040E060E870E04E
:1037200090E080E00E94360E20E430E050E040E07F
:1037300060E870E088E790E00E94360E30E020E01C
:1037400046EF5FEF60E870E090E080E00E94360EA8
:103750008BE090E00E94060E84E290E043CF49E1C6
:1037600059E060E270E080E290E00E94AE0E4FE02F
:1037700059E060E270E088E290E00E94AE0E49E11C
:1037800059E060E270E080E390E00E94AE0E81E0DC
:1037900090E00E94060E8EE090E00E941E0E82E1F4
:1037A00090E0D9CD49E159E060E270E080E290E03C
:1037B0000E94AE0E4FE059E060E270E088E290E0D7
:1037C0000E94AE0E49E45BE06AE270E086E490E0BD
:1037D0000E94AE0E2CE330E048E250E06AE570E073
:1037E00086E490E00E94360E8DE090E00E94060E86
:1037F0008FE090E00E941E0E83E190E0ACCD47EC9C
:103800005AE064E170E082E390E00E94AE0E49E489
:103810005BE066E170E08CE390E00E94AE0E24E194
:1038200030E048E250E060E570E08CE390E00E9418
:10383000360E26E430E04CE350E060E870E090E0C3
:1038400080E00E94360E8EE090E00E94060E80E13D
:1038500090E00E941E0E84E190E00E94EE0D15CAD9
:1038600049E45BE06AE070E084E190E00E94AE0E23
:1038700022E330E044E150E066E470E082E390E06F
:103880000E94360E20E430E050E040E060E870E056
:1038900088E790E00E94360E26E430E04CE350E0EA
:1038A00060E870E090E080E00E94360E8FE090E0EB
:1038B0000E94060E85E190E0D0CF49E45BE06AE02B
:1038C00070E088E290E00E94AE0E2EE130E04AE027
:1038D00050E06CE370E088E290E00E94360E83E0F6
:1038E00090E00E94060E82E190E00E941E0E81E0B0
:1038F00090E00E94D60D86E190E0AFCF47EC5AE011
:1039000064E170E088E290E00E94AE0E81E190E018
:103910000E94060E83E190E00E941E0E8DE090E072
:103920000E94D60D87E190E098CF49E45BE064E126
:1039300070E088E290E00E94AE0E49E45BE064E152
:1039400070E086E490E00E94AE0E22E330E044E1B5
:1039500050E064E670E088E290E00E94360E82E17A
:1039600090E00E94060E84E190E00E941E0E8EE020
:1039700090E00E94D60D88E190E06FCF49E159E0D8
:1039800064E170E088E290E00E94AE0E49E45BE002
:1039900064E170E086E490E00E94AE0E83E190E086
:1039A0000E94060E85E190E00E941E0E8FE090E0DE
:1039B0000E94D60D89E190E050CF49E45BE06EE1D2
:1039C00070E08CE390E00E94AE0E2EE130E042E326
:1039D00050E06AE570E08CE390E00E94360E20E44F
:1039E00030E050E040E060E870E088E790E00E945E
:1039F000360E84E190E00E94060E80E190E00E9485
:103A0000D60D8AE190E029CF49E45BE064E170E003
:103A100086E490E00E94AE0E22E330E044E150E004
:103A200064E670E086E490E00E94360E8BE190E060
:103A30000E94EE0D84E090E00E94060E87E190E087
:103A40000E941E0E81E190E0CDCD49E45BE06AE08A
:103A500070E08CE390E00E94AE0E47EC5AE064E127
:103A600070E082E390E00E94AE0E2EE130E04AE08A
:103A700050E060E570E08CE390E00E94360E87E154
:103A800090E00E94060E88E190E00E941E0E82E106
:103A900090E00E94D60D8CE190E0DFCE47EC5AE03A
:103AA00066E470E086E490E00E94AE0E49E159E0E1
:103AB00064E170E082E390E00E94AE0E49E159E0DB
:103AC00064E170E08AE390E00E94AE0E87E190E04E
:103AD0000E94060E89E190E00E941E0E83E190E0B4
:103AE0000E94D60D8DE190E0B8CE49E45BE064E140
:103AF00070E086E490E00E94AE0E49E159E064E196
:103B000070E082E390E00E94AE0E49E159E064E18A
:103B100070E08AE390E00E94AE0E22E330E044E1E0
:103B200050E064E670E086E490E00E94360E8EE19C
:103B300090E00E94EE0D84E190E00E94D60D88E1B5
:103B400090E00E94060E8AE190E086CC49E45BE0BA
:103B50006AE070E080E590E00E94AE0E47EC5AE02B
:103B600062E370E086E490E00E94AE0E4FE059E020
:103B700064E170E082E390E00E94AE0E49E159E01A
:103B800064E170E08AE390E00E94AE0E28E230E04B
:103B90004AE050E06EE670E080E590E00E94360E6C
:103BA00020E430E050E040E060E870E088E790E03A
:103BB0000E94360E8FE190E00E94EE0D85E190E0CC
:103BC0000E94D60D89E190E00E94060E5EC847EC87
:103BD0005AE06EE170E08EE190E00E94AE0E49E4A2
:103BE0005BE06EE170E082E390E00E94AE0E22E3C3
:103BF00030E04EE150E066E470E082E390E00E9445
:103C0000360E85E090E00E94060E8CE190E00E9466
:103C10001E0E86E190E00E94D60D80E290E01DCE5F
:103C20004FE059E064E170E082E390E00E94AE0E64
:103C300047EC5AE06EE170E08AE390E00E94AE0E3D
:103C40008BE190E00E94060E8DE190E00E941E0E36
:103C500087E190E00E94D60D81E290E0FECD49E43C
:103C60005BE06EE170E08EE190E00E94AE0E22E338
:103C700030E04EE150E062E370E08EE190E00E94BF
:103C8000360E8CE190E00E94060E8EE190E00E94DC
:103C90001E0E88E190E00E94D60D82E290E0DDCD1C
:103CA00049E45BE062E370E08EE190E00E94AE0EDA
:103CB00028E230E044E150E060E570E08CE390E021
:103CC0000E94360E8DE190E00E94060E8FE190E09A
:103CD0000E941E0E89E190E00E94D60D83E290E0E2
:103CE000BCCD47EC5AE062E370E088E790E00E94C8
:103CF000AE0E4DEE58E064E170E088E290E00E9484
:103D0000AE0E20E430E050E040E060E870E088E78C
:103D100090E00E94360E8EE190E00E94060E8AE14D
:103D200090E00E94D60D84E290E097CD49E45BE0FC
:103D300068E270E08CE390E00E94AE0E4DEE58E039
:103D40006EE170E082E390E00E94AE0E2CE330E082
:103D500048E250E060E570E08CE390E00E94360EAF
:103D600086E090E00E94060E81E290E00E941E0E26
:103D70008BE190E00E94D60D88E090E06ECD47EC9C
:103D80005AE06EE170E082E390E00E94AE0E4DEEEC
:103D900058E06AE070E088E290E00E94AE0E80E2B7
:103DA00090E00E94060E82E290E00E941E0E8CE1DE
:103DB00090E00E94D60D89E090E04FCD47EC5AE0AC
:103DC0006EE170E082E390E00E94AE0E49E45BE0B9
:103DD0006AE070E088E290E00E94AE0E2EE130E0F2
:103DE0004AE050E06CE370E088E290E00E94360E1A
:103DF00081E290E00E94060E83E290E00E941E0E97
:103E00008DE190E00E94D60D8AE090E026CD47EC4F
:103E10005AE06EE170E08AE090E00E94AE0E4DEE56
:103E200058E06AE070E08AE090E00E94AE0E82E224
:103E300090E00E94060E84E290E00E941E0E8EE149
:103E400090E00E94D60D8BE090E007CD47EC5AE061
:103E50006EE170E082E390E00E94AE0E49E159E02D
:103E60006AE070E088E290E00E94AE0E20E430E06C
:103E700050E040E060E870E088E790E00E94360E95
:103E800083E290E00E94060E8FE190E00E94D60D42
:103E90008CE090E0E2CC8330910559F1049711F069
:103EA0000C94711680916001909161010F9718C078
:103EB000809160019091610190936501809364010C
:103EC00080916201909163010F97909367018093B5
:103ED00066010C94711680916001909161010F96BA
:103EE00090936501809364018091620190916301D8
:103EF000ECCF809160019091610190936501809376
:103F0000640180916201909163010F96DECF83304E
:103F1000910509F482C0049709F022C860916201FA
:103F2000709163014DED57E08091600190916101C6
:103F30000E94AE0E0130110509F025C80091640100
:103F400010916501609166017091670145EB57E042
:103F5000C8010E94AE0E085011091093650100932C
:103F60006401073F1F4F54F10EC8609162017091C8
:103F7000630149EA58E080916001909161010E94DB
:103F8000AE0E0130110511F00C94C31700916601BB
:103F90001091670143ED57E0B80180916401909161
:103FA00065010E94AE0E085011091093670100933D
:103FB0006601053C1F4F14F00C94C3171092730157
:103FC000109272010C94C3176091620170916301A9
:103FD00041E258E080916001909161010E94AE0E33
:103FE0000130110511F00C94C31700916401109178
:103FF0006501609166017091670149EC57E0C80165
:104000000E94AE0E085F1F4F10936501009364017C
:10401000003A11059CF60C94C317609162017091EF
:10402000630145E658E080916001909161010E9432
:10403000AE0E0130110511F00C94C317009166010A
:10404000109167014FEB57E0B801809164019091A6
:1040500065010E94AE0E085F1F4F10936701009329
:1040600066010C3311050CF0A9CF0C94C3178330F3
:10407000910521F3049709F461CF0C94C317309292
:104080007D0120927C0110927F0110927E01CFC8A9
:1040900010925B0110925A01EBC88F929F92AF92DF
:1040A000BF92CF92DF92EF92FF92CF93DF93EC011A
:1040B000688179818A819B816115710581059105EE
:1040C00021F464E279ED8BE597E02DE133EF41E0F7
:1040D00050E00E94BF2049015A019B01AC01A7EAB0
:1040E000B1E40E94DE206B017C01ACEEB4EFA501CF
:1040F00094010E94EC20DC01CB018C0D9D1DAE1DB6
:10410000BF1DB7FF03C00197A109B04888839983F9
:10411000AA83BB839F77DF91CF91FF90EF90DF90D1
:10412000CF90BF90AF909F908F9008950E944D20A8
:1041300008958DE091E00E944D200895B0E0A0E048
:1041400080930D0190930E01A0930F01B093100185
:104150000895F999FECF92BD81BDF89A992780B54F
:104160000895262FF999FECF1FBA92BD81BD20BDBB
:104170000FB6F894FA9AF99A0FBE01960895052E93
:1041800097FB1EF400940E94D62057FD07D00E9492
:10419000F12007FC03D04EF40C94D62050954095A6
:1041A000309521953F4F4F4F5F4F089590958095E3
:1041B000709561957F4F8F4F9F4F08950E941321F7
:1041C000A59F900DB49F900DA49F800D911D11246B
:1041D0000895B7FF0C94DE200E94DE20821B930B13
:1041E0000895A1E21A2EAA1BBB1BFD010DC0AA1F38
:1041F000BB1FEE1FFF1FA217B307E407F50720F050
:10420000A21BB30BE40BF50B661F771F881F991FCA
:104210001A9469F760957095809590959B01AC0113
:10422000BD01CF010895A29FB001B39FC001A39F1C
:10423000700D811D1124911DB29F700D811D1124DF
:10424000911D08955058BB27AA270E943A210C942B
:1042500042220E94342238F00E943B2220F039F49E
:104260009F3F19F426F40C9431220EF4E095E7FBFD
:104270000C942B22E92F0E94532258F3BA1762079D
:1042800073078407950720F079F4A6F50C9475223E
:104290000EF4E0950B2EBA2FA02D0B01B901900161
:1042A0000C01CA01A0011124FF27591B99F0593FA5
:1042B00050F4503E68F11A16F040A22F232F342FED
:1042C0004427585FF3CF469537952795A795F0403B
:1042D0005395C9F77EF41F16BA0B620B730B840B50
:1042E000BAF09150A1F0FF0FBB1F661F771F881F08
:1042F000C2F70EC0BA0F621F731F841F48F4879560
:1043000077956795B795F7959E3F08F0B0CF939551
:10431000880F08F09927EE0F9795879508950E94CA
:10432000072208F481E008950E949B216894B1114E
:104330000C94762208950E945B2288F09F5798F093
:10434000B92F9927B751B0F0E1F0660F771F881F9A
:10435000991F1AF0BA95C9F714C0B13091F00E94B4
:104360007522B1E008950C947522672F782F882765
:10437000B85F39F0B93FCCF3869577956795B395DB
:10438000D9F73EF490958095709561957F4F8F4F4A
:104390009F4F0895E89409C097FB3EF4909580954F
:1043A000709561957F4F8F4F9F4F9923A9F0F92FFB
:1043B00096E9BB279395F695879577956795B79579
:1043C000F111F8CFFAF4BB0F11F460FF1BC06F5F5F
:1043D0007F4F8F4F9F4F16C0882311F096E911C071
:1043E000772321F09EE8872F762F05C0662371F092
:1043F00096E8862F70E060E02AF09A95660F771FA6
:10440000881FDAF7880F9695879597F90895990F81
:104410000008550FAA0BE0E8FEEF16161706E8078E
:10442000F907C0F012161306E407F50798F0621BAF
:10443000730B840B950B39F40A2661F0232B242B84
:10444000252B21F408950A2609F4A140A6958FEFA3
:10445000811D811D089597F99F6780E870E060E0F5
:1044600008959FEF80EC089500240A94161617060D
:1044700018060906089500240A9412161306140655
:1044800005060895092E0394000C11F4882352F0B8
:10449000BB0F40F4BF2B11F460FF04C06F5F7F4F70
:1044A0008F4F9F4F089557FD9058440F551F59F057
:1044B0005F3F71F04795880F97FB991F61F09F3F11
:1044C00079F087950895121613061406551FF2CF3A
:1044D0004695F1DF08C0161617061806991FF1CF8A
:1044E00086957105610508940895E894BB276627B1
:1044F0007727CB0197F908950E94072208F48FEFE0
:1045000008950E9494220C9442220E94342238F092
:104510000E943B2220F0952311F00C942B220C9446
:10452000312211240C9476220E94532270F3959F1D
:10453000C1F3950F50E0551F629FF001729FBB279A
:10454000F00DB11D639FAA27F00DB11DAA1F649F36
:104550006627B00DA11D661F829F2227B00DA11DE9
:10456000621F739FB00DA11D621F839FA00D611D6F
:10457000221F749F3327A00D611D231F849F600D90
:10458000211D822F762F6A2F11249F5750409AF0B9
:10459000F1F088234AF0EE0FFF1FBB1F661F771F45
:1045A000881F91505040A9F79E3F510580F00C9410
:1045B0002B220C9476225F3FE4F3983ED4F3869549
:1045C00077956795B795F795E7959F5FC1F7FE2BB0
:1045D000880F911D9695879597F9089597FB072E5B
:1045E00016F4009407D077FD09D00E94082307FC39
:1045F00005D03EF4909581959F4F089570956195F3
:104600007F4F0895EE0FFF1F0590F491E02D099460
:10461000AA1BBB1B51E107C0AA1FBB1FA617B707E8
:1046200010F0A61BB70B881F991F5A95A9F7809504
:0C4630009095BC01CD010895F894FFCFD7
:10463C0010FFFFFFFF00E100000000000001000080
:10464C0000030100C180810000000000000080090F
:10465C00180BA1099609E709A509C3090000000078
:08466C00B20B930AB40EB30E69
:00000001FF
